:020000040800F2
:1000000090070020A1610008190300081B030008E5
:100010001F03000823030008270300080000000056
:100020000000000000000000000000002B0300089A
:100030002D030008000000002F0300083103000812
:10004000BB610008BB610008BB610008BB61000820
:10005000BB610008BB610008BB610008BB61000810
:10006000BB610008BB610008BB610008BB61000800
:10007000BB610008BB610008BB610008BB610008F0
:10008000BB610008BB610008BB610008BB610008E0
:10009000BB610008BB610008BB610008BB610008D0
:1000A000BB610008BB610008BB610008BB610008C0
:1000B000BB610008BB610008BB610008BB610008B0
:1000C000BB610008BB610008BB610008BB610008A0
:1000D000BB61000851600008BB610008BB610008FB
:1000E000BB610008BB610008BB610008BB61000880
:1000F000BB610008BB610008BB610008BB61000870
:10010000BB610008BB610008BB610008BB6100085F
:10011000BB610008BB610008BB610008BB6100084F
:10012000BB610008BB610008BB610008BB6100083F
:1001300000F002F800F05DF80AA090E8000C82449C
:100140008344AAF10107DA4501D100F052F8AFF279
:10015000090EBAE80F0013F0010F18BFFB1A43F0A5
:1001600001031847D8EA0000F8EA0000103A24BF5B
:1001700078C878C1FAD8520724BF30C830C144BF0C
:1001800004680C607047000000230024002500264E
:10019000103A28BF78C1FBD8520728BF30C148BFEA
:1001A0000B60704766290CF0068265290CF003820B
:1001B000642908F0EF80782908F02881732908F075
:1001C0004686002070471FB59DE8030008F066FBD7
:1001D00008F058FE0400002000210AF0DFFF401C58
:1001E0006060002000210AF0EFFFE0601FBD10B545
:1001F00010BD08F06CFF1146FFF7E5FF00F008F8AE
:1002000008F08AFF03B4FFF7F2FF03BC05F0C4FE59
:100210000024A1464FF0090A05F054FE4FF4A060F7
:1002200005F0DEFF4FF4E13005F0C6FE00F072F994
:1002300000F058FE03F082FC00F098F905F023FB73
:100240002F4803F001FD2F4803F016FD56E0002073
:1002500000F0A6F9044610212B4806F028FCA04225
:1002600001D14FF001090821274806F020FCA042E7
:1002700011D150460BF09DFA07460022234B0BF09C
:1002800025FD05460BF038FA824650460BF0D4FFA8
:10029000054603F0F1FCB9F1010F17D11C480088A5
:1002A00000F00BFE05F000FB05F0D1FB4FF47A7077
:1002B00005F045FE05F097FA054659460BF04CFF50
:1002C00004D005F090FA834605F05FFD0121114846
:1002D00006F0EDFBA04211D150460BF06AFA07463A
:1002E00000220A4B0AF0B8FF05460BF005FA8246D9
:1002F00050460BF0A1FF054603F0BEFCA7E7000047
:100300000000B44200001041001801400000E03F2E
:100310001800002000080140704700BFFEE700BF42
:10032000FEE700BFFEE700BFFEE77047704770477B
:10033000704700000CB50020019000906C480068E8
:1003400040F480306A49086000BF6948006800F4E2
:10035000003000900198401C0190009818B9019855
:10036000B0F5A06FF1D16248006800F4003010B120
:100370000120009001E0002000900098012843D166
:100380005C48006840F010005A4908600846006860
:1003900020F0030008600846006840F00200086092
:1003A00053484068524948600846406848600846DB
:1003B000406840F4806048600846406820F47C1043
:1003C00048600846406840F4E81048600846006805
:1003D00040F08070086000BF4548006800F0007081
:1003E0000028F9D04248406820F0030040494860A6
:1003F0000846406840F00200486000BF3C48406842
:1004000000F00C000828F9D10CBD10B5FFF792FFE1
:1004100010BD10B53648006840F00100344908604E
:100420000846406834490840314948600846006839
:10043000324908402E4908600846006820F48020B0
:1004400008600846406820F4FE0048604FF41F0032
:100450008860FFF7DAFF4FF000602949086010BD9F
:1004600010B5002100200022214B5B6803F00C0135
:1004700021B1042906D0082928D107E0214B224CBC
:10048000236027E01F4B204C236023E0184B5B6860
:1004900003F47010164B5B6803F48032022303EB05
:1004A000904022B9194B4343174C23600DE0104B89
:1004B0005B6803F4003323B1144B4343124C2360B5
:1004C00003E0104B4343104C236003E00D4B0E4CF4
:1004D000236000BF00BF064B5B68C3F303130C4CE3
:1004E000E15C094B1B68CB40074C236010BD00004A
:1004F00000100240002002400000FFF8FFFFF6FE5F
:1005000008ED00E000127A000000002000093D0024
:100510000400002008B50121882006F0F1FC20200D
:10052000ADF8000010208DF8030003208DF80200C4
:1005300069460C4806F028FA20210A4806F0D3FA4A
:100540002020ADF8000010208DF8030003208DF866
:1005500002006946044806F017FA2021024806F016
:10056000C2FA08BD000C0140001C014008B5012181
:10057000442006F0C5FC1820ADF8000048208DF896
:10058000030069462C4806F0FFF90120ADF8000091
:1005900028208DF803006946284806F0F5F908BDC3
:1005A00010B5044614B1012025490870244800788C
:1005B00058B31021204806F07AFA50B108211E489D
:1005C00006F075FA28B101211C4806F070FA0128DE
:1005D0001BD10A2005F0B3FC002019490870102136
:1005E000154806F064FA08B9012010BD0821124828
:1005F00006F05DFA08B90220F7E701210F4806F07E
:1006000056FA012815D10320EFE710210A4806F019
:100610004EFA01280DD10821074806F048FA0128B2
:1006200007D10121054806F042FA10B9012004491A
:1006300008700020D9E700000018014000080140C0
:1006400014000020FE4908807047FD49891C08807D
:10065000704708B5FA48801C00880090BDF800007B
:1006600008BDF74A1080921C1180704710B50446EF
:100670002046FFF7E7FF052005F03DFCFFF7E9FF07
:1006800010BDF0480089EE4908807047EC49891C8C
:100690000880704730B5014601F01F04C1F34513CF
:1006A000CA0AE50205EB43151544A8B230BD00BFE8
:1006B000011EA0F10102D0B2FAD1704700B5024686
:1006C0000B46E048808841F66311884247D1DD48F7
:1006D0008079A8B9DB480088401E801A82B2D949C7
:1006E0004889FFF7AFFF0020FFF7AFFF0020FFF7BB
:1006F000ACFF1012FFF7A9FFD0B2FFF7A6FF16E07C
:10070000D0494889FFF79EFF1012FFF79EFFD0B235
:10071000FFF79BFFCB490988491EC1F30F20FFF764
:1007200094FFC8490978491EC8B2FFF78EFFC54932
:100730008889FFF787FF1812FFF787FFD8B2FFF706
:1007400084FFC0494988491EC1F30F20FFF77DFF90
:10075000BC498978491EC8B2FFF777FF3AE0B9482B
:10076000808845F21051884220D1B6494889FFF768
:1007700069FF1012FFF769FFB2494989491C88B225
:10078000FFF760FFD0B2FFF760FFAE498889FFF73F
:1007900059FF1812FFF759FFAA498989491C88B2E5
:1007A000FFF750FFD8B2FFF750FF13E0A549488983
:1007B000FFF748FF1012FFF748FFD0B2FFF745FFE1
:1007C000A0498889FFF73EFF1812FFF73EFFD8B215
:1007D000FFF73BFF00BD2DE9F04105460E46994865
:1007E0000088A84203DD97484088B04202DC002020
:1007F000BDE8F08131462846FFF760FF91488088C8
:1008000045F21051884204D14FF43850FFF71AFFD7
:1008100002E02E20FFF716FFFFF71BFF0446894872
:10082000808841F66311884201D12046E0E7FFF756
:1008300010FF0446FFF70DFF8046E7B24FF6FF704A
:1008400000EA0727E012C002B91240EA411040EA6C
:10085000E820CDE700B57B48808845F210518842FA
:1008600004D14FF42450FFF7EDFE02E02920FFF7FA
:10087000E9FE00BD00B57348808845F210518842FA
:1008800004D14FF42050FFF7DDFE02E02820FFF7EF
:10089000D9FE00BD70B50446002300266948807962
:1008A000012805D16748808841F66311884208D144
:1008B00064488079F0B96348808841F663118842C2
:1008C00018D1082C15D2DFE804F00406080A0C0E33
:1008D000101206240DE007240BE0042409E005248F
:1008E00007E0012405E0002403E0032401E00224E2
:1008F00000BF00BF082C1CD2DFE804F00406090C7E
:100900000F12151800BF14E043F0800311E043F00C
:1009100040030EE043F0C0030BE043F0200308E087
:1009200043F0600305E043F0A00302E043F0E0037E
:1009300000BF00BF4348808845F21051884202D171
:100940004FF4585600E036263E48808849F241313F
:10095000884205D03B48808847F28971884201D19E
:1009600043F0080319463046FFF77BFE3548808880
:1009700041F6631188421DD003F0200068B1314870
:10098000008830494988884214DA2E480588408812
:100990002C490880084645800CE02A4800882949EF
:1009A0004988884206DD274805884088254908800F
:1009B000084645802348808845F21051884257D127
:1009C00020494889FFF73EFE0020FFF73EFE1D4903
:1009D0004989491C88B2FFF735FE0020FFF735FE34
:1009E00018494989891C88B2FFF72CFE15490988E6
:1009F000491EC1F30F20FFF728FE12494989C91C7F
:100A000088B2FFF71FFE0F490978491EC8B2FFF7E9
:100A10001CFE0C498889FFF715FE0020FFF715FE24
:100A200008498989491C88B2FFF70CFE0020FFF7AE
:100A30000CFE04498989891C88B2FFF703FE03E094
:100A4000FE07006C58000020FE494988491EC1F38A
:100A50000F20FFF7FAFDFB498989C91C88B2FFF70F
:100A6000F1FDF8498978491EC8B2FFF7EEFD2DE087
:100A7000F4494889FFF7E6FD0020FFF7E6FD002076
:100A8000FFF7E3FDEF490988491EC1F30F20FFF787
:100A9000DCFDEC490978491EC8B2FFF7D6FDE949EB
:100AA0008889FFF7CFFD0020FFF7CFFD0020FFF77B
:100AB000CCFDE4494988491EC1F30F20FFF7C5FD6D
:100AC000E0498978491EC8B2FFF7BFFD70BD30B557
:100AD00004460D4629462046FFF7F0FDFFF7D1FDFD
:100AE000D9480088D949088030BD10B503460C4666
:100AF000D448808845F21051884220D1D149488994
:100B0000FFF7A0FD1812FFF7A0FDCE494989491C47
:100B100088B2FFF797FDD8B2FFF797FDC9498889DA
:100B2000FFF790FD2012FFF790FDC6498989491C07
:100B300088B2FFF787FDE0B2FFF787FD42E0C148CA
:100B4000808841F66311884228D1BE48807920B957
:100B5000BC480088401EC01A83B2BA494889FFF7D2
:100B600071FD1812FFF771FDD8B2FFF76EFD181274
:100B7000FFF76BFDD8B2FFF768FDB2498889FFF730
:100B800061FD2012FFF761FDE0B2FFF75EFD20126C
:100B9000FFF75BFDE0B2FFF758FD13E0A949488974
:100BA000FFF750FD1812FFF750FDD8B2FFF74DFDCB
:100BB000A4498889FFF746FD2012FFF746FDE0B201
:100BC000FFF743FD9F480089A049891E0880881CC3
:100BD000028010BD2DE9F0470446BE20FFF732FD2C
:100BE0000520FFF732FD20460AF0FAFD07464FF0D8
:100BF0006632974B0AF044FE05460AF0ADFD1FFA37
:100C000080F94846FFF721FD0120FFF71EFDFF2078
:100C1000FFF71BFD0020FFF718FD0020FFF715FD73
:100C2000BDE8F08710B5044686488471002C45D194
:100C3000F020844908804FF4A070488008468088DE
:100C400045F21051884210D14FF430507D4908814F
:100C50004FF4285048814FF42C5088814FF4F070A5
:100C600008804FF4487048801AE07648808841F642
:100C7000631188420DD12C20724908812B204881B4
:100C80002A2088814FF4F07008804FF44870488023
:100C900006E02C206B4908812A2048812B2088817E
:100CA0006848808845F2103188424CD14FF4A070DA
:100CB000644908804FF4F070488044E04FF4A0701D
:100CC00060490880F02048800846808845F210512D
:100CD000884210D14FF430505A4908814FF42850BF
:100CE00048814FF42C5088814FF4487008804FF4AD
:100CF000F07048801AE05348808841F663118842BA
:100D00000DD12C204F4908812A2048812B20888131
:100D10004FF4487008804FF4F070488006E02C20B3
:100D2000484908812A2048812B20888145488088AD
:100D300045F21031884206D14FF4F07041490880E5
:100D40004FF4A07048800020FFF7A4FD10BDF0B55F
:100D500004460D46A018401E86B2E818401E87B211
:100D60003848808841F66311884231D1354880790E
:100D700001282DD033480088801A001B84B2E8185F
:100D8000401E83B22F494889FFF75CFC2012FFF711
:100D90005CFCE0B2FFF759FCA118491EC1F30F201B
:100DA000FFF753FCA118491EC8B2FFF74EFC2549B6
:100DB0008889FFF747FC2812FFF747FCE8B2FFF7E6
:100DC00044FC1812FFF741FCD8B2FFF73EFC73E079
:100DD0001C48808845F2105188424DD119494889F4
:100DE000FFF730FC2012FFF730FC16494989491CF7
:100DF00088B2FFF727FCE0B2FFF727FC11494989C9
:100E0000891C88B2FFF71EFC3012FFF71EFC0D494B
:100E10004989C91C88B2FFF715FCF0B2FFF715FC31
:100E200008498889FFF70EFC2812FFF70EFC0549D8
:100E30008989491C88B2FFF705FCE8B2FFF705FC79
:100E4000004907E058000020160000200008006C50
:100E5000666604408989891C88B2FFF7F3FB381263
:100E6000FFF7F3FBFE498989C91C88B2FFF7EAFB4B
:100E7000F8B2FFF7EAFB1FE0F9494889FFF7E2FB08
:100E80002012FFF7E2FBE0B2FFF7DFFB3012FFF7C3
:100E9000DCFBF0B2FFF7D9FBF1498889FFF7D2FB01
:100EA0002812FFF7D2FBE8B2FFF7CFFB3812FFF7AB
:100EB000CCFBF8B2FFF7C9FBF0BD70B504460026C5
:100EC000E74805884088454300210846FFF7F6FBC0
:100ED000FFF7D7FB00BF02E0E2480480761CAE4279
:100EE000FAD370BD00B59FB00121080205F0FBFFE9
:100EF00001214FF4B47006F003F80120ADF878003A
:100F000010208DF87B0003208DF87A001EA9D648AA
:100F100005F03AFD4CF23370ADF8780018208DF8EA
:100F20007B0003208DF87A001EA9D04805F02CFD27
:100F30004FF68070ADF8780018208DF87B00032004
:100F40008DF87A001EA9CA4805F01EFD41F2010085
:100F5000ADF8780018208DF87B0003208DF87A001A
:100F60001EA9C44805F010FD01200890002009903A
:100F70000F200A9000200B900C900D900E90019085
:100F800002900320039000200490059006900790A3
:100F900006200F9000201090119010201290002039
:100FA000139015901490169017904FF4805018904D
:100FB000002019904FF480401A9000201B9008A840
:100FC0001C9001A81D900FA805F0C4F9012106206E
:100FD00005F028FB322004F0B2FFD320FFF732FBEC
:100FE000FFF737FB9E498880FFF733FB9C498880D9
:100FF000FFF72FFB9A498880084680884FF6FF71DB
:1010000001EA002096498880FFF723FB94498988EC
:101010000843934988800846808849F241318842D4
:101020007DD00420FFF70EFBFFF713FB8C4988806F
:10103000FFF70FFB8A498880FFF70BFB8849888000
:10104000084680884FF6FF7101EA002084498880B5
:10105000FFF7FFFA8249898808438149888008465A
:10106000808848F25251884203D147F289707C4906
:1010700088807B48808847F289718842D0D0D4200C
:10108000FFF7E0FAFFF7E5FA75498880FFF7E1FA24
:1010900073498880FFF7DDFA7149888008468088A7
:1010A0004FF6FF7101EA00206D498880FFF7D1FA01
:1010B0006B49898808436A4988800846808845F2D8
:1010C0001031884262D055214FF47040FFF7C9FAC1
:1010D000AA214FF20100FFF7C4FA52214FF2020099
:1010E000FFF7BFFA08214FF20300FFF7BAFA012118
:1010F0004FF20400FFF7B5FA4FF44540FFF7A2FAAC
:10110000FFF7A7FA56498880084680884FF6FF7196
:1011100001EA0020524988804CF2015000E035E09D
:10112000FFF790FAFFF795FA4D49898808434C4933
:101130008880052004F003FF4948808845F210515B
:10114000884223D0A120FFF77DFAFFF782FA4449B5
:101150008880FFF77EFA42498880084680884FF6EB
:10116000FF7101EA00203E498880FFF772FA3C498E
:10117000898808433A4988800846808845F2617129
:10118000884203D141F6631035498880344881880C
:1011900039A007F08FF83248808849F241318842FF
:1011A00072D1CF20FFF74EFA0020FFF74EFAC12090
:1011B000FFF74BFA3020FFF748FAED20FFF742FA2D
:1011C0006420FFF742FA0320FFF73FFA1220FFF7EF
:1011D0003CFA8120FFF739FAE820FFF733FA85203F
:1011E000FFF733FA1020FFF730FA7A20FFF72DFAD5
:1011F000CB20FFF727FA3920FFF727FA2C20FFF73B
:1012000024FA0020FFF721FA3420FFF71EFA02200B
:10121000FFF71BFAF720FFF715FA2020FFF715FA62
:10122000EA20FFF70FFA0020FFF70FFA0020FFF780
:101230000CFAC020FFF706FA1B20FFF706FAC120C0
:10124000FFF700FA0120FFF700FAC520FFF7FAF9CF
:101250003020FFF7FAF93020FFF7F7F9C72014E044
:10126000580000200008006C000C014000140140F0
:101270000018014000200140204C43442049443ADA
:1012800025780D0A00000000B7E0FFF7DBF9B72072
:10129000FFF7DBF93620FFF7D5F94820FFF7D5F93E
:1012A0003A20FFF7CFF95520FFF7CFF9B120FFF72C
:1012B000C9F90020FFF7C9F91A20FFF7C6F9B620CF
:1012C000FFF7C0F90A20FFF7C0F9A220FFF7BDF928
:1012D000F220FFF7B7F90020FFF7B7F92620FFF754
:1012E000B1F90120FFF7B1F9E020FFF7ABF90F20CA
:1012F000FFF7ABF92A20FFF7A8F92820FFF7A5F997
:101300000820FFF7A2F90E20FFF79FF90820FFF74A
:101310009CF95420FFF799F9A920FFF796F943208B
:10132000FFF793F90A20FFF790F90F20FFF78DF9E7
:101330000020FFF78AF90020FFF787F90020FFF768
:1013400084F90020FFF781F9E120FFF77BF9002005
:10135000FFF77BF91520FFF778F91720FFF775F9EC
:101360000720FFF772F91120FFF76FF90620FFF74A
:101370006CF92B20FFF769F95620FFF766F93C203E
:10138000FFF763F90520FFF760F91020FFF75DF91B
:101390000F20FFF75AF93F20FFF757F93F20FFF7DB
:1013A00054F90F20FFF751F92B20FFF74BF90020DC
:1013B000FFF74BF90020FFF748F90120FFF745F947
:1013C0003F20FFF742F92A20FFF73CF90020FFF702
:1013D0003CF90020FFF739F90020FFF736F9EF203C
:1013E000FFF733F91120FFF72DF9782004F0A7FD5E
:1013F0002920FFF727F902F0A6B8FE48808847F2B7
:10140000897188427ED11120FFF71CF9782004F001
:1014100096FD3620FFF716F90020FFF716F93A205F
:10142000FFF710F90520FFF710F9B220FFF70AF9CE
:101430000C20FFF70AF90C20FFF707F90020FFF74F
:1014400004F93320FFF701F93320FFF7FEF8B72046
:10145000FFF7F8F83520FFF7F8F8BB20FFF7F2F8B0
:101460003220FFF7F2F8C020FFF7ECF80C20FFF76E
:10147000ECF8C220FFF7E6F80120FFF7E6F8C320FA
:10148000FFF7E0F81020FFF7E0F8C420FFF7DAF8E4
:101490002020FFF7DAF8C620FFF7D4F80F20FFF777
:1014A000D4F8D020FFF7CEF8A420FFF7CEF8A12083
:1014B000FFF7CBF8E020FFF7C5F8D020FFF7C5F81D
:1014C0000020FFF7C2F80220FFF7BFF80720FFF760
:1014D000BCF80A20FFF7B9F82820FFF7B6F8322049
:1014E000FFF7B3F84420FFF7B0F84220FFF7ADF85C
:1014F0000620FFF7AAF80E20FFF7A7F81220FFF743
:10150000A4F800E054E01420FFF79FF81720FFF73D
:101510009CF8E120FFF796F8D020FFF796F800201E
:10152000FFF793F80220FFF790F80720FFF78DF8F8
:101530000A20FFF78AF82820FFF787F83120FFF705
:1015400084F85420FFF781F84720FFF77EF80E203B
:10155000FFF77BF81C20FFF778F81720FFF775F8E6
:101560001B20FFF772F81E20FFF76FF82A20FFF705
:1015700069F80020FFF769F80020FFF766F80020FF
:10158000FFF763F8EF20FFF760F82B20FFF75AF81A
:101590000020FFF75AF80020FFF757F80120FFF767
:1015A00054F83F20FFF751F82920FFF74BF822E7C6
:1015B0009048808845F21031884240F07C87ED20C9
:1015C000FFF740F80120FFF740F8FE20FFF73DF855
:1015D000EE20FFF737F8DE20FFF737F82120FFF77E
:1015E00034F8F120FFF72EF80120FFF72EF8DF2066
:1015F000FFF728F81020FFF728F8C420FFF722F89B
:101600008F20FFF722F8C620FFF71CF80020FFF715
:101610001CF8E220FFF719F8E220FFF716F8E220A5
:10162000FFF713F8BF20FFF70DF8AA20FFF70DF81A
:10163000B020FFF707F80D20FFF707F80020FFF7AD
:1016400004F80D20FFF701F80020FEF7FEFF11203F
:10165000FEF7FBFF0020FEF7F8FF1920FEF7F5FF6D
:101660000020FEF7F2FF2120FEF7EFFF0020FEF73B
:10167000ECFF2D20FEF7E9FF0020FEF7E6FF3D20FE
:10168000FEF7E3FF0020FEF7E0FF5D20FEF7DDFF41
:101690000020FEF7DAFF5D20FEF7D7FF0020FEF7FF
:1016A000D4FFB120FEF7CEFF8020FEF7CEFF002052
:1016B000FEF7CBFF8B20FEF7C8FF0020FEF7C5FF2B
:1016C0009620FEF7C2FF0020FEF7BFFFB220FEF714
:1016D000B9FF0020FEF7B9FF0020FEF7B6FF022099
:1016E000FEF7B3FF0020FEF7B0FF0320FEF7ADFFCB
:1016F0000020FEF7AAFFB320FEF7A4FF0020FEF7AC
:10170000A4FF0020FEF7A1FF0020FEF79EFF0020AF
:10171000FEF79BFF0020FEF798FF0020FEF795FFE5
:101720000020FEF792FF0020FEF78FFF0020FEF75B
:101730008CFF0020FEF789FF0020FEF786FF0020C7
:10174000FEF783FF0020FEF780FF0020FEF77DFFFD
:101750000020FEF77AFF0020FEF777FF0020FEF75B
:1017600074FF0020FEF771FF0020FEF76EFF0020DF
:10177000FEF76BFF0020FEF768FF0020FEF765FF15
:101780000020FEF762FF0020FEF75FFFB420FEF7A7
:1017900059FF8B20FEF759FF0020FEF756FF9620D9
:1017A000FEF753FF0020FEF750FFA120FEF74DFF8C
:1017B0000020FEF74AFFB520FEF744FF0220FEF7A7
:1017C00044FF0020FEF741FF0320FEF73EFF00200C
:1017D000FEF73BFF0420FEF738FF0020FEF735FF41
:1017E000B620FEF72FFF0020FEF72FFF0020FEF7A8
:1017F0002CFF01E058000020B720FEF723FF002057
:10180000FEF723FF0020FEF720FF3F20FEF71DFF1D
:101810000020FEF71AFF5E20FEF717FF0020FEF7FC
:1018200014FF6420FEF711FF0020FEF70EFF8C204E
:10183000FEF70BFF0020FEF708FFAC20FEF705FFC8
:101840000020FEF702FFDC20FEF7FFFE0020FEF77F
:10185000FCFE7020FEF7F9FE0020FEF7F6FE902059
:10186000FEF7F3FE0020FEF7F0FEEB20FEF7EDFEA4
:101870000020FEF7EAFEDC20FEF7E7FE0020FEF780
:10188000E4FEB820FEF7DEFE0020FEF7DEFE0020BC
:10189000FEF7DBFE0020FEF7D8FE0020FEF7D5FEA7
:1018A0000020FEF7D2FE0020FEF7CFFE0020FEF75C
:1018B000CCFE0020FEF7C9FEBA20FEF7C3FE2420AE
:1018C000FEF7C3FE0020FEF7C0FE0020FEF7BDFEBF
:1018D0000020FEF7BAFEC120FEF7B4FE2020FEF77E
:1018E000B4FE0020FEF7B1FE5420FEF7AEFE00204D
:1018F000FEF7ABFEFF20FEF7A8FE0020FEF7A5FED8
:10190000C220FEF79FFE0A20FEF79FFE0020FEF792
:101910009CFE0420FEF799FE0020FEF796FEC320F1
:10192000FEF790FE3C20FEF790FE0020FEF78DFEB5
:101930003A20FEF78AFE0020FEF787FE3920FEF7E8
:1019400084FE0020FEF781FE3720FEF77EFE002099
:10195000FEF77BFE3C20FEF778FE0020FEF775FECA
:101960003620FEF772FE0020FEF76FFE3220FEF7F3
:101970006CFE0020FEF769FE2F20FEF766FE0020B9
:10198000FEF763FE2C20FEF760FE0020FEF75DFEF2
:101990002920FEF75AFE0020FEF757FE2620FEF70C
:1019A00054FE0020FEF751FE2420FEF74EFE0020DC
:1019B000FEF74BFE2420FEF748FE0020FEF745FE12
:1019C0002320FEF742FE0020FEF73FFE3C20FEF7FC
:1019D0003CFE0020FEF739FE3620FEF736FE0020E2
:1019E000FEF733FE3220FEF730FE0020FEF72DFE1C
:1019F0002F20FEF72AFE0020FEF727FE2C20FEF700
:101A000024FE0020FEF721FE2920FEF71EFE002006
:101A1000FEF71BFE2620FEF718FE0020FEF715FE3F
:101A20002420FEF712FE0020FEF70FFE2420FEF712
:101A30000CFE0020FEF709FE2320FEF706FE002024
:101A4000FEF703FEC420FEF7FDFD6220FEF7FDFD5C
:101A50000020FEF7FAFD0520FEF7F7FD0020FEF757
:101A6000F4FD8420FEF7F1FD0020FEF7EEFDF020EE
:101A7000FEF7EBFD0020FEF7E8FD1820FEF7E5FD80
:101A80000020FEF7E2FDA420FEF7DFFD0020FEF7B8
:101A9000DCFD1820FEF7D9FD0020FEF7D6FD502012
:101AA000FEF7D3FD0020FEF7D0FD0C20FEF7CDFDA4
:101AB0000020FEF7CAFD1720FEF7C7FD0020FEF745
:101AC000C4FD9520FEF7C1FD0020FEF7BEFDF3200A
:101AD000FEF7BBFD0020FEF7B8FDE620FEF7B5FDE2
:101AE0000020FEF7B2FDC520FEF7ACFD3220FEF768
:101AF000ACFD0020FEF7A9FD4420FEF7A6FD002066
:101B0000FEF7A3FD6520FEF7A0FD0020FEF79DFD7A
:101B10007620FEF79AFD0020FEF797FD8820FEF75D
:101B200094FD0020FEF791FDC620FEF78BFD2020DE
:101B3000FEF78BFD0020FEF788FD1720FEF785FDE0
:101B40000020FEF782FD0120FEF77FFD0020FEF75A
:101B50007CFDC720FEF776FD0020FEF776FD002015
:101B6000FEF773FD0020FEF770FD0020FEF76DFD0F
:101B7000C820FEF767FD0020FEF767FD0020FEF796
:101B800064FD0020FEF761FD0020FEF75EFDC92028
:101B9000FEF758FD0020FEF758FD0020FEF755FD2A
:101BA0000020FEF752FD0020FEF74FFD0020FEF75B
:101BB0004CFD0020FEF749FD0020FEF746FD002009
:101BC000FEF743FD0020FEF740FD0020FEF73DFD3F
:101BD0000020FEF73AFD0020FEF737FD0020FEF75B
:101BE00034FD0020FEF731FD0020FEF72EFD002021
:101BF000FEF72BFDE020FEF725FD1620FEF725FD64
:101C00000020FEF722FD1C20FEF71FFD0020FEF73E
:101C10001CFD2120FEF719FD0020FEF716FD3620E1
:101C2000FEF713FD0020FEF710FD4620FEF70DFD28
:101C30000020FEF70AFD5220FEF707FD0020FEF708
:101C400004FD6420FEF701FD0020FEF7FEFC7A2073
:101C5000FEF7FBFC0020FEF7F8FC8B20FEF7F5FCFE
:101C60000020FEF7F2FC9920FEF7EFFC0020FEF7C3
:101C7000ECFCA820FEF7E9FC0020FEF7E6FCB9200A
:101C8000FEF7E3FC0020FEF7E0FCC420FEF7DDFCDD
:101C90000020FEF7DAFCCA20FEF7D7FC0020FEF792
:101CA000D4FCD220FEF7D1FC0020FEF7CEFCD920D8
:101CB000FEF7CBFC0020FEF7C8FCE020FEF7C5FCD9
:101CC0000020FEF7C2FCF320FEF7BFFC0020FEF769
:101CD000BCFCE120FEF7B6FC1620FEF7B6FC0020A7
:101CE000FEF7B3FC1C20FEF7B0FC0020FEF7ADFCB5
:101CF0002220FEF7AAFC0020FEF7A7FC3620FEF704
:101D0000A4FC0020FEF7A1FC4520FEF79EFC00206D
:101D1000FEF79BFC5220FEF798FC0020FEF795FC96
:101D20006420FEF792FC0020FEF78FFC7A20FEF77D
:101D30008CFC0020FEF789FC8B20FEF786FC00203F
:101D4000FEF783FC9920FEF780FC0020FEF77DFC67
:101D5000A820FEF77AFC0020FEF777FCB920FEF7FA
:101D600074FC0020FEF771FCC420FEF76EFC00201E
:101D7000FEF76BFCCA20FEF768FC0020FEF765FC4E
:101D8000D220FEF762FC0020FEF75FFCD820FEF7B1
:101D90005CFC0020FEF759FCE020FEF756FC00201A
:101DA000FEF753FCF320FEF750FC0020FEF74DFC3D
:101DB000E220FEF747FC0520FEF747FC0020FEF777
:101DC00044FC0B20FEF741FC0020FEF73EFC1B20EC
:101DD000FEF73BFC0020FEF738FC3420FEF735FC14
:101DE0000020FEF732FC4420FEF72FFC0020FEF717
:101DF0002CFC4F20FEF729FC0020FEF726FC61207A
:101E0000FEF723FC0020FEF720FC7920FEF71DFCE6
:101E10000020FEF71AFC8820FEF717FC0020FEF7D2
:101E200014FC9720FEF711FC0020FEF70EFCA62004
:101E3000FEF70BFC0020FEF708FCB720FEF705FCC0
:101E40000020FEF702FCC220FEF7FFFB0020FEF799
:101E5000FCFBC720FEF7F9FB0020FEF7F6FBD120C4
:101E6000FEF7F3FB0020FEF7F0FBD620FEF7EDFBBC
:101E70000020FEF7EAFBDD20FEF7E7FB0020FEF77F
:101E8000E4FBF320FEF7E1FB0020FEF7DEFBE3209E
:101E9000FEF7D8FB0520FEF7D8FB0020FEF7D5FBA8
:101EA0000A20FEF7D2FB0020FEF7CFFB1C20FEF736
:101EB000CCFB0020FEF7C9FB3320FEF7C6FB002059
:101EC000FEF7C3FB4420FEF7C0FB0020FEF7BDFB7E
:101ED0005020FEF7BAFB0020FEF7B7FB6220FEF7AA
:101EE000B4FB0020FEF7B1FB7820FEF7AEFB00202C
:101EF000FEF7ABFB8820FEF7A8FB0020FEF7A5FB52
:101F00009720FEF7A2FB0020FEF79FFBA620FEF71E
:101F10009CFB0020FEF799FBB720FEF796FB002004
:101F2000FEF793FBC220FEF790FB0020FEF78DFB2F
:101F3000C720FEF78AFB0020FEF787FBD120FEF7C3
:101F400084FB0020FEF781FBD520FEF77EFB0020FE
:101F5000FEF77BFBDD20FEF778FB0020FEF775FB2C
:101F6000F320FEF772FB0020FEF76FFBE420FEF784
:101F700069FB0120FEF769FB0020FEF766FB0120EC
:101F8000FEF763FB0020FEF760FB0220FEF75DFB1F
:101F90000020FEF75AFB2A20FEF757FB0020FEF731
:101FA00054FB3C20FEF751FB0020FEF74EFB4B207C
:101FB000FEF74BFB0020FEF748FB5D20FEF745FBDC
:101FC0000020FEF742FB7420FEF73FFB0020FEF7E7
:101FD0003CFB8420FEF739FB0020FEF736FB932004
:101FE000FEF733FB0020FEF730FBA220FEF72DFBAF
:101FF0000020FEF72AFBB320FEF727FB0020FEF7A8
:1020000024FBBE20FEF721FB0020FEF71EFBC420B0
:10201000FEF71BFB0020FEF718FBCD20FEF715FB9B
:102020000020FEF712FBD320FEF70FFB0020FEF787
:102030000CFBDD20FEF709FB0020FEF706FBF3207A
:10204000FEF703FB0020FEF700FBE520FEF7FAFA9F
:102050000020FEF7FAFA0020FEF7F7FA0020FEF75C
:10206000F4FA0020FEF7F1FA0220FEF7EEFA002063
:10207000FEF7EBFA2920FEF7E8FA0020FEF7E5FA72
:102080003C20FEF7E2FA0020FEF7DFFA4B20FEF7D5
:10209000DCFA0020FEF7D9FA5D20FEF7D6FA002020
:1020A000FEF7D3FA7420FEF7D0FA0020FEF7CDFA3F
:1020B0008420FEF7CAFA0020FEF7C7FA9320FEF745
:1020C000C4FA0020FEF7C1FAA220FEF7BEFA0020F3
:1020D000FEF7BBFAB320FEF7B8FA0020FEF7B5FA18
:1020E000BE20FEF7B2FA0020FEF7AFFAC420FEF7DA
:1020F000ACFA0020FEF7A9FACD20FEF7A6FA0020E0
:10210000FEF7A3FAD320FEF7A0FA0020FEF79DFA0F
:10211000DC20FEF79AFA0020FEF797FAF320FEF78C
:1021200094FA0020FEF791FAE620FEF78BFA1120D0
:10213000FEF78BFA0020FEF788FA3420FEF785FAC6
:102140000020FEF782FA5620FEF77FFA0020FEF705
:102150007CFA7620FEF779FA0020FEF776FA7720EF
:10216000FEF773FA0020FEF770FA6620FEF76DFAAC
:102170000020FEF76AFA8820FEF767FA0020FEF7D3
:1021800064FA9920FEF761FA0020FEF75EFABB20A0
:10219000FEF75BFA0020FEF758FA9920FEF755FA91
:1021A0000020FEF752FA6620FEF74FFA0020FEF7F5
:1021B0004CFA5520FEF749FA0020FEF746FA552062
:1021C000FEF743FA0020FEF740FA4520FEF73DFAFD
:1021D0000020FEF73AFA4320FEF737FA0020FEF718
:1021E00034FA4420FEF731FA0020FEF72EFAE720F9
:1021F000FEF728FA3220FEF728FA0020FEF725FA2B
:102200005520FEF722FA0020FEF71FFA7620FEF78F
:102210001CFA0020FEF719FA6620FEF716FA0020D5
:10222000FEF713FA6720FEF710FA0020FEF70DFA0A
:102230006720FEF70AFA0020FEF707FA8720FEF76C
:1022400004FA0020FEF701FA9920FEF7FEF90020BB
:10225000FEF7FBF9BB20FEF7F8F90020FEF7F5F9D1
:102260009920FEF7F2F90020FEF7EFF97720FEF74C
:10227000ECF90020FEF7E9F94420FEF7E6F900202A
:10228000FEF7E3F95620FEF7E0F90020FEF7DDF94E
:102290002320FEF7DAF90020FEF7D7F93320FEF706
:1022A000D4F90020FEF7D1F94520FEF7CEF9002041
:1022B000FEF7CBF9E820FEF7C5F90020FEF7C5F9D7
:1022C0000020FEF7C2F99920FEF7BFF90020FEF7C3
:1022D000BCF98720FEF7B9F90020FEF7B6F988208F
:1022E000FEF7B3F90020FEF7B0F97720FEF7ADF95D
:1022F0000020FEF7AAF96620FEF7A7F90020FEF7F6
:10230000A4F98820FEF7A1F90020FEF79EF9AA2083
:10231000FEF79BF90020FEF798F9BB20FEF795F930
:102320000020FEF792F99920FEF78FF90020FEF7C2
:102330008CF96620FEF789F90020FEF786F9552012
:10234000FEF783F90020FEF780F95520FEF77DF9AE
:102350000020FEF77AF94420FEF777F90020FEF717
:1023600074F94420FEF771F90020FEF76EF955204C
:10237000FEF76BF90020FEF768F9E920FEF762F935
:10238000AA20FEF762F90020FEF75FF90020FEF7B1
:102390005CF90020FEF759F90020FEF753F9AA2056
:1023A000FEF753F9CF20FEF74DF90020FEF74DF967
:1023B0000020FEF74AF90020FEF747F90020FEF75B
:1023C00044F90020FEF741F90020FEF73EF9002015
:1023D000FEF73BF90020FEF738F90020FEF735F94B
:1023E0000020FEF732F90020FEF72FF90020FEF75B
:1023F0002CF90020FEF729F90020FEF726F900202D
:10240000FEF723F90020FEF720F90020FEF71DF962
:10241000F020FEF717F90020FEF717F95020FEF71D
:1024200014F90020FEF711F90020FEF70EF9002044
:10243000FEF70BF9F320FEF705F90020FEF705F98A
:10244000F920FEF7FFF80620FEF7FFF81020FEF750
:10245000FCF82920FEF7F9F80020FEF7F6F83A20FC
:10246000FEF7F0F85520FEF7F0F81120FEF7EAF835
:10247000642003F064FD2920FEF7E4F83520FEF720
:10248000E1F80020FEF7E1F85120FEF7DBF8FF202D
:10249000FEF7DBF85320FEF7D5F82C20FEF7D5F831
:1024A0005520FEF7CFF88220FEF7CFF82C20FEF75C
:1024B000C9F801F048B8FE48808845F210518842BA
:1024C0007ED155214FF47040FEF7CBF8AA214FF290
:1024D0000100FEF7C6F852214FF20200FEF7C1F8E4
:1024E00008214FF20300FEF7BCF801214FF204006F
:1024F000FEF7B7F80D214FF43040FEF7B2F80D218A
:102500004BF20100FEF7ADF80D214BF20200FEF791
:10251000A8F834214FF43640FEF7A3F834214BF2EB
:102520000160FEF79EF834214BF20260FEF799F845
:102530000D214FF43140FEF794F80D214BF20110BC
:10254000FEF78FF80D214BF20210FEF78AF83421C6
:102550004FF43740FEF785F834214BF20170FEF757
:1025600080F834214BF20270FEF77BF800214FF423
:102570003240FEF776F800214BF20120FEF771F8A9
:1025800000214BF20220FEF76CF824214FF4384072
:10259000FEF767F824214BF60100FEF762F82421CC
:1025A0004BF60200FEF75DF801214FF43F40FEF7C5
:1025B00058F80F214FF43340FEF753F80F2100E095
:1025C000FEE34BF20130FEF74CF80F214BF20230E4
:1025D000FEF747F834214FF43940FEF742F8342132
:1025E0004BF60110FEF73DF834214BF60210FEF7D2
:1025F00038F808214FF43540FEF733F808214BF244
:102600000150FEF72EF808214BF20250FEF729F890
:1026100003214FF44240FEF724F824214FF43A40BE
:10262000FEF71FF824214BF60120FEF71AF82421AB
:102630004BF60220FEF715F800214FF43C40FEF760
:1026400010F878214BF60140FEF70BF800214BF60D
:102650000240FEF706F800214FF43D40FEF701F876
:1026600078214BF60150FDF7FCFF00214BF602509C
:10267000FDF7F7FF00214FF43E40FDF7F2FF642124
:102680004BF60160FDF7EDFF00214FF45140FDF7DF
:10269000E8FF33214DF20110FDF7E3FF00214DF279
:1026A0000210FDF7DEFF34214DF20310FDF7D9FFD4
:1026B00000214DF20410FDF7D4FF3A214DF2051030
:1026C000FDF7CFFF00214DF20610FDF7CAFF4A21AA
:1026D0004DF20710FDF7C5FF00214DF20810FDF780
:1026E000C0FF5C214DF20910FDF7BBFF00214DF248
:1026F0000A10FDF7B6FF81214DF20B10FDF7B1FF77
:1027000000214DF20C10FDF7ACFFA6214DF20D108B
:10271000FDF7A7FF00214DF20E10FDF7A2FFE52106
:102720004DF20F10FDF79DFF01214DF21010FDF746
:1027300098FF13214DF21110FDF793FF01214DF287
:102740001210FDF78EFF54214DF21310FDF789FF93
:1027500001214DF21410FDF784FF82214DF2151076
:10276000FDF77FFF01214DF21610FDF77AFFCA2118
:102770004DF21710FDF775FF02214DF21810FDF70D
:1027800070FF00214DF21910FDF76BFF02214DF291
:102790001A10FDF766FF01214DF21B10FDF761FFD6
:1027A00002214DF21C10FDF75CFF34214DF21D108B
:1027B000FDF757FF02214DF21E10FDF752FF672172
:1027C0004DF21F10FDF74DFF02214DF22010FDF7D5
:1027D00048FF84214DF22110FDF743FF02214DF205
:1027E0002210FDF73EFFA4214DF22310FDF739FF23
:1027F00002214DF22410FDF734FFB7214DF22510D0
:10280000FDF72FFF02214DF22610FDF72AFFCF2101
:102810004DF22710FDF725FF02214DF22810FDF79C
:1028200020FFDE214DF22910FDF71BFF02214DF2A2
:102830002A10FDF716FFF2214DF22B10FDF711FFC4
:1028400002214DF22C10FDF70CFFFE214DF22D1050
:10285000FDF707FF03214DF22E10FDF702FF1021B7
:102860004DF22F10FDF7FDFE03214DF23010FDF764
:10287000F8FE33214DF23110FDF7F3FE03214DF246
:102880003210FDF7EEFE6D214DF23310FDF7E9FE3B
:1028900000214FF45240FDF7E4FE33214DF20120B8
:1028A000FDF7DFFE00214DF20220FDF7DAFE01E028
:1028B0005800002034214DF20320FDF7D2FE002104
:1028C0004DF20420FDF7CDFE3A214DF20520FDF733
:1028D000C8FE00214DF20620FDF7C3FE4A214DF24D
:1028E0000720FDF7BEFE00214DF20820FDF7B9FEDE
:1028F0005C214DF20920FDF7B4FE00214DF20A20C3
:10290000FDF7AFFE81214DF20B20FDF7AAFE00215D
:102910004DF20C20FDF7A5FEA6214DF20D20FDF78E
:10292000A0FE00214DF20E20FDF79BFEE5214DF2A9
:102930000F20FDF796FE01214DF21020FDF791FECC
:1029400013214DF21120FDF78CFE01214DF21220D2
:10295000FDF787FE54214DF21320FDF782FE012181
:102960004DF21420FDF77DFE82214DF21520FDF77A
:1029700078FE01214DF21620FDF773FECA214DF2BB
:102980001720FDF76EFE02214DF21820FDF769FEBB
:1029900000214DF21920FDF764FE02214DF21A20AC
:1029A000FDF75FFE01214DF21B20FDF75AFE0221CB
:1029B0004DF21C20FDF755FE34214DF21D20FDF790
:1029C00050FE02214DF21E20FDF74BFE67214DF215
:1029D0001F20FDF746FE02214DF22020FDF741FEAB
:1029E00084214DF22120FDF73CFE02214DF22220F0
:1029F000FDF737FEA4214DF22320FDF732FE022120
:102A00004DF22420FDF72DFEB7214DF22520FDF7D4
:102A100028FE02214DF22620FDF723FECF214DF2A4
:102A20002720FDF71EFE02214DF22820FDF719FE9A
:102A3000DE214DF22920FDF714FE02214DF22A205D
:102A4000FDF70FFEF2214DF22B20FDF70AFE0221C9
:102A50004DF22C20FDF705FEFE214DF22D20FDF755
:102A600000FE03214DF22E20FDF7FBFD10214DF25B
:102A70002F20FDF7F6FD03214DF23020FDF7F1FD8B
:102A800033214DF23120FDF7ECFD03214DF23220D0
:102A9000FDF7E7FD6D214DF23320FDF7E2FD00214A
:102AA0004FF45340FDF7DDFD33214DF20130FDF7CA
:102AB000D8FD00214DF20230FDF7D3FD34214DF257
:102AC0000330FDF7CEFD00214DF20430FDF7C9FDC6
:102AD0003A214DF20530FDF7C4FD00214DF20630DC
:102AE000FDF7BFFD4A214DF20730FDF7BAFD002189
:102AF0004DF20830FDF7B5FD5C214DF20930FDF7D0
:102B0000B0FD00214DF20A30FDF7ABFD81214DF201
:102B10000B30FDF7A6FD00214DF20C30FDF7A1FDB5
:102B2000A6214DF20D30FDF79CFD00214DF20E3037
:102B3000FDF797FDE5214DF20F30FDF792FD0121E4
:102B40004DF21030FDF78DFD13214DF21130FDF7E0
:102B500088FD01214DF21230FDF783FD54214DF225
:102B60001330FDF77EFD01214DF21430FDF779FDA4
:102B700082214DF21530FDF774FD01214DF2163022
:102B8000FDF76FFDCA214DF21730FDF76AFD0221F6
:102B90004DF21830FDF765FD00214DF21930FDF7BB
:102BA00060FD02214DF21A30FDF75BFD01214DF26F
:102BB0001B30FDF756FD02214DF21C30FDF751FD93
:102BC00034214DF21D30FDF74CFD02214DF21E3037
:102BD000FDF747FD67214DF21F30FDF742FD022151
:102BE0004DF22030FDF73DFD84214DF22130FDF7FF
:102BF00038FD02214DF22230FDF733FDA4214DF2C4
:102C00002330FDF72EFD02214DF22430FDF729FD82
:102C1000B7214DF22530FDF724FD02214DF226307B
:102C2000FDF71FFDCF214DF22730FDF71AFD0221E0
:102C30004DF22830FDF715FDDE214DF22930FDF76C
:102C400010FD02214DF22A30FDF70BFDF2214DF26D
:102C50002B30FDF706FD02214DF22C30FDF701FD72
:102C6000FE214DF22D30FDF7FCFC03214DF22E30FC
:102C7000FDF7F7FC10214DF22F30FDF7F2FC032198
:102C80004DF23030FDF7EDFC33214DF23130FDF7E0
:102C9000E8FC03214DF23230FDF7E3FC6D214DF2EB
:102CA0003330FDF7DEFC00214FF45440FDF7D9FC32
:102CB00033214DF20140FDF7D4FC00214DF20240DA
:102CC000FDF7CFFC34214DF20340FDF7CAFC002193
:102CD0004DF20440FDF7C5FC3A214DF20540FDF7E9
:102CE000C0FC00214DF20640FDF7BBFC4A214DF22D
:102CF0000740FDF7B6FC00214DF20840FDF7B1FC9E
:102D00005C214DF20940FDF7ACFC00214DF20A4078
:102D1000FDF7A7FC81214DF20B40FDF7A2FC00213D
:102D20004DF20C40FDF79DFCA6214DF20D40FDF744
:102D300098FC00214DF20E40FDF793FCE5214DF289
:102D40000F40FDF78EFC01214DF21040FDF789FC8C
:102D500013214DF21140FDF784FC01214DF2124088
:102D6000FDF77FFC54214DF21340FDF77AFC012161
:102D70004DF21440FDF775FC82214DF21540FDF730
:102D800070FC01214DF21640FDF76BFCCA214DF29B
:102D90001740FDF766FC02214DF21840FDF761FC7B
:102DA00000214DF21940FDF75CFC02214DF21A4062
:102DB000FDF757FC01214DF21B40FDF752FC00E0EE
:102DC00003E302214DF21C40FDF74BFC34214DF290
:102DD0001D40FDF746FC02214DF21E40FDF741FC6F
:102DE00067214DF21F40FDF73CFC02214DF22040CF
:102DF000FDF737FC84214DF22140FDF732FC022122
:102E00004DF22240FDF72DFCA4214DF22340FDF7A9
:102E100028FC02214DF22440FDF723FCB7214DF29E
:102E20002540FDF71EFC02214DF22640FDF719FC5E
:102E3000CF214DF22740FDF714FC02214DF228402E
:102E4000FDF70FFCDE214DF22940FDF70AFC0221BF
:102E50004DF22A40FDF705FCF2214DF22B40FDF723
:102E600000FC02214DF22C40FDF7FBFBFE214DF250
:102E70002D40FDF7F6FB03214DF22E40FDF7F1FB4F
:102E800010214DF22F40FDF7ECFB03214DF23040B5
:102E9000FDF7E7FB33214DF23140FDF7E2FB032163
:102EA0004DF23240FDF7DDFB6D214DF23340FDF771
:102EB000D8FB00214FF45540FDF7D3FB33214DF2F1
:102EC0000150FDF7CEFB00214DF20250FDF7C9FB8A
:102ED00034214DF20350FDF7C4FB00214DF20450A4
:102EE000FDF7BFFB3A214DF20550FDF7BAFB00217B
:102EF0004DF20650FDF7B5FB4A214DF20750FDF7A4
:102F0000B0FB00214DF20850FDF7ABFB5C214DF208
:102F10000950FDF7A6FB00214DF20A50FDF7A1FB79
:102F200081214DF20B50FDF79CFB00214DF20C501E
:102F3000FDF797FBA6214DF20D50FDF792FB002106
:102F40004DF20E50FDF78DFBE5214DF20F50FDF7D0
:102F500088FB01214DF21050FDF783FB13214DF248
:102F60001150FDF77EFB01214DF21250FDF779FB68
:102F700054214DF21350FDF774FB01214DF2145012
:102F8000FDF76FFB82214DF21550FDF76AFB012121
:102F90004DF21650FDF765FBCA214DF21750FDF7B3
:102FA00060FB02214DF21850FDF75BFB00214DF252
:102FB0001950FDF756FB02214DF21A50FDF751FB57
:102FC00001214DF21B50FDF74CFB02214DF21C502C
:102FD000FDF747FB34214DF21D50FDF742FB022166
:102FE0004DF21E50FDF73DFB67214DF21F50FDF7DE
:102FF00038FB02214DF22050FDF733FB84214DF2C6
:103000002150FDF72EFB02214DF22250FDF729FB46
:10301000A4214DF22350FDF724FB02214DF2245050
:10302000FDF71FFBB7214DF22550FDF71AFB0221DA
:103030004DF22650FDF715FBCF214DF22750FDF73D
:1030400010FB02214DF22850FDF70BFBDE214DF263
:103050002950FDF706FB02214DF22A50FDF701FB36
:10306000F2214DF22B50FDF7FCFA02214DF22C50CB
:10307000FDF7F7FAFE214DF22D50FDF7F2FA03218C
:103080004DF22E50FDF7EDFA10214DF22F50FDF7C5
:10309000E8FA03214DF23050FDF7E3FA33214DF207
:1030A0003150FDF7DEFA03214DF23250FDF7D9FA27
:1030B0006D214DF23350FDF7D4FA00214FF4564004
:1030C000FDF7CFFA33214DF20160FDF7CAFA002176
:1030D0004DF20260FDF7C5FA34214DF20360FDF7B1
:1030E000C0FA00214DF20460FDF7BBFA3A214DF21F
:1030F0000560FDF7B6FA00214DF20660FDF7B1FA62
:103100004A214DF20760FDF7ACFA00214DF208604C
:10311000FDF7A7FA5C214DF20960FDF7A2FA002144
:103120004DF20A60FDF79DFA81214DF20B60FDF72B
:1031300098FA00214DF20C60FDF793FAA6214DF2AA
:103140000D60FDF78EFA00214DF20E60FDF789FA51
:10315000E5214DF20F60FDF784FA01214DF2106078
:10316000FDF77FFA13214DF21160FDF77AFA012184
:103170004DF21260FDF775FA54214DF21360FDF720
:1031800070FA01214DF21460FDF76BFA82214DF2C5
:103190001560FDF766FA01214DF21660FDF761FA40
:1031A000CA214DF21760FDF75CFA02214DF218605A
:1031B000FDF757FA00214DF21960FDF752FA02218E
:1031C0004DF21A60FDF74DFA01214DF21B60FDF73B
:1031D00048FA02214DF21C60FDF743FA34214DF20A
:1031E0001D60FDF73EFA02214DF21E60FDF739FA2F
:1031F00067214DF21F60FDF734FA02214DF2206085
:10320000FDF72FFA84214DF22160FDF72AFA022101
:103210004DF22260FDF725FAA4214DF22360FDF75F
:1032200020FA02214DF22460FDF71BFAB7214DF27E
:103230002560FDF716FA02214DF22660FDF711FA1E
:10324000CF214DF22760FDF70CFA02214DF22860E4
:10325000FDF707FADE214DF22960FDF702FA02219F
:103260004DF22A60FDF7FDF9F2214DF22B60FDF7DA
:10327000F8F902214DF22C60FDF7F3F9FE214DF231
:103280002D60FDF7EEF903214DF22E60FDF7E9F90F
:1032900010214DF22F60FDF7E4F903214DF230606B
:1032A000FDF7DFF933214DF23160FDF7DAF9032143
:1032B0004DF23260FDF7D5F96D214DF23360FDF727
:1032C000D0F955214FF47040FDF7CBF9AA214FF208
:1032D0000100FDF7C6F952214FF20200FDF7C1F9D6
:1032E00008214FF20300FDF7BCF900214FF2040062
:1032F000FDF7B7F9CC214FF43140FDF7B2F90021C9
:103300004BF20110FDF7ADF905214FF43640FDF702
:10331000A8F970214FF43740FDF7A3F970214BF263
:103320000170FDF79EF901214FF43840FDF799F93E
:1033300003214BF60100FDF794F903214BF602003F
:10334000FDF78FF903214BF60300FDF78AF90221FF
:103350004FF43C40FDF785F900214BF60140FDF7A5
:1033600080F900214BF60240FDF77BF9D0214FF4A4
:103370004940FDF776F902214CF60110FDF771F98D
:1033800050214CF60210FDF76CF950214CF6031059
:10339000FDF767F950214CF60410FDF762F90021A2
:1033A0004FF45450FDF75DF955214FF46850FDF787
:1033B00058F94FF48850FDF745F9782002F09BFD4D
:1033C0004FF42450FDF73EF9BDE0FE48808841F6F9
:1033D00063118842F8D1E220FDF734F91D20FDF792
:1033E00034F90220FDF731F90420FDF72EF96420AD
:1033F00002F081FDE020FDF725F90120FDF725F918
:103400000A2002F09CFDE020FDF71CF90320FDF7E7
:103410001CF90C2002F093FD0120FDF713F90A209E
:1034200002F08DFDE620FDF70DF92F20FDF70DF9D7
:10343000FF20FDF70AF9FF20FDF707F9B020FDF79F
:1034400001F92020FDF701F90020FDF7FEF8032027
:10345000FDF7FBF840F21F30FDF7F7F80120FDF70C
:10346000F4F840F2DF10FDF7F0F80020FDF7EDF87A
:10347000B420FDF7E7F80420FDF7E7F840F21F401D
:10348000FDF7E3F80020FDF7E0F82E20FDF7DDF86A
:103490000020FDF7DAF80020FDF7D7F80020FDF74F
:1034A000D4F80020FDF7D1F8B620FDF7CBF80220C4
:1034B000FDF7CBF84FF40370FDF7C7F80020FDF7D8
:1034C000C4F81720FDF7C1F81520FDF7BEF800205D
:1034D000FDF7BBF80020FDF7B8F8F020FDF7B2F8D3
:1034E0000320FDF7B2F82920FDF7ACF8D020FDF756
:1034F000A9F80020FDF7A9F8BE20FDF7A3F80520E4
:10350000FDF7A3F8FE20FDF7A0F80120FDF79DF8D8
:103510000020FDF79AF80020FDF797F80020FDF74E
:1035200094F8B820FDF78EF80320FDF78EF80120FF
:10353000FDF78BF8BA20FDF785F80120FDF785F837
:103540006420FDF747FB0120FDF76CFB01209E493D
:1035500008604FF6FF70FDF7B0FC1FB000BD2DE90D
:10356000F04F05460E4617469846DDF824A04FF06A
:10357000000B781B401C1FFA80FB344613E02146E9
:103580002846FDF79BF8FDF77CF84FF0000906E0B0
:103590008E48A0F800A009F101001FFA80F9D94572
:1035A000F6DB601C84B24445E9DDBDE8F08F2DE90F
:1035B000F84F07460D4690469946DDF828B0A8EB2F
:1035C0000700401C1FFA80FAA9EB0500401C80B2DE
:1035D0000090002414E0281981B23846FDF76EF8F7
:1035E000FDF74FF8002607E004FB0A603BF81000E7
:1035F00076490880701C86B25645F5DB601C84B2A3
:1036000000988442E7DBBDE8F88F2DE9FF4F84B0D6
:1036100081468A460020039002900698A0EB090597
:103620000798A0EB0A06CDF80490CDF800A0002D75
:1036300001DD012705E00DB9002702E04FF0FF375B
:103640006D42002E02DD4FF0010806E016B94FF082
:10365000000802E04FF0FF387642B54201DD2C460B
:1036600000E034464FF0000B21E0009A91B2019A3D
:1036700090B2FDF72CFA0398284403900298304446
:1036800002900398A04205DD0398001B0390019867
:10369000384401900298A04205DD0298001B029078
:1036A0000098404400900BF101001FFA80FB601C61
:1036B0008345DADD08B0BDE8F08FF0B504460D466D
:1036C00016461F462B46324629462046FFF79DFFE9
:1036D0003B46224629462046FFF797FF3B463246A7
:1036E00039462046FFF791FF3B4632462946304691
:1036F000FFF78BFFF0BD2DE9F04306460F469046DD
:10370000002445460320A0EB48093CE07A1B91B217
:10371000321990B2FDF7DBF93A1B91B2721990B2EF
:10372000FDF7D5F93A1991B2721990B2FDF7CFF9B8
:103730007A1991B2321990B2FDF7C9F97A1991B29A
:10374000321B90B2FDF7C3F93A1991B2721B90B2D5
:10375000FDF7BDF97A1B91B2321B90B2FDF7B7F9B4
:103760003A1B91B2721B90B2FDF7B1F9641CB9F12A
:10377000000F03DAA000801D814404E0601B80007C
:103780000A3081446D1EAC42C0DDBDE8F0832DE9F6
:10379000F84F80460E4617461C46B3462046E317B0
:1037A00004EB5373DB1021464FEAE47C04EB5C7CB2
:1037B0004FEAEC0CA4EBCC0CBCF1000F08D04FF09E
:1037C000010C07E058000020808121420008006CB5
:1037D0004FF0000C6344224604EBD27C4FEA6C0CA1
:1037E00003FB0CF3DBB20093A7F12000C7B2002566
:1037F00056E00C2C07D107EB4700C94901EB8000CC
:1038000010F8059013E0102C05D1C64800EB071006
:1038100010F805900BE0182C07D107EBC700C24940
:1038200001EB800010F8059001E0BDE8F88F4FF043
:10383000000A2FE009F0800030B1BC480288314610
:103840004046FDF752F907E00A9828B9B8480288BF
:1038500031464046FDF749F94FEA49604FEA1069A1
:10386000701C86B2B3484088B04200DCDDE7A6EBAE
:103870000B00A0420AD15E4608F101001FFA80F851
:10388000AC480088404500DCCFE706E00AF10100C3
:1038900000F0FF0ABAF1080FCCDB00BF681CC5B20C
:1038A00000988542A5DB00BFBFE710B502460120A6
:1038B00000E050430B1EA1F10104E1B2F9D110BDAB
:1038C0002DE9FF4F81B0074691461E460E9D4FF0F1
:1038D000000A002439E0301B401EC1B20A20FFF765
:1038E000E4FFB9FBF0F00A21B0FBF1F201FB120892
:1038F000BAF1000F16D1701EA04213DDB8F1000F0F
:103900000ED10020AB4605EBDB71491001FB0471C1
:10391000009088B22B4620220299FFF738FF12E070
:103920004FF0010A0020AB4605EBDB71491001FBAB
:103930000471009088B208F13001CAB22B46029996
:10394000FFF725FF00BF601CC4B2B442C3DB05B063
:10395000BDE8F08F2DE9FF4F82B0064692461F4624
:10396000DDE90F480020019000254DE0781B401E46
:10397000C1B20A20FFF799FFBAFBF0F00A21B0FBB1
:10398000F1F201FB1209019850BB781EA84227DD15
:10399000B9F1000F22D108F0800078B108F00100E1
:1039A000A34604EBDB71491001FB0561009088B26E
:1039B000234630220399FFF7EAFE0EE008F00100EB
:1039C000A34604EBDB71491001FB0561009088B24E
:1039D000234620220399FFF7DAFE13E0012001902D
:1039E00008F00100A34604EBDB71491001FB0561FF
:1039F000009088B209F13001CAB223460399FFF75B
:103A0000C6FE00BF681CC5B2BD42AFDB06B0BDE854
:103A1000F08F2DE9F84704460D4690469946DDE9BA
:103A2000096704F0FF0A08EB04001FFA80F809EBAD
:103A300005001FFA80F916E0444502DB5446A81938
:103A400085B24D4500DB14E0002000903A78334603
:103A500029462046FFF79BFE304606EBD07104EB6B
:103A600061018CB27F1C38787E2802DC38782028EF
:103A7000E2DA00BFBDE8F8872DE9F84F07460D46AA
:103A800090461C46AA462046E21704EB5272D2101A
:103A90002146E31704EB5373DB10A4EBC3030BB114
:103AA000012300E000231A44624302F0FF0B0026CA
:103AB00031E008EBC800204901EBC00010F8069087
:103AC0000020009021E009F0800028B12946384606
:103AD0000A9AFDF70AF806E00C9820B929463846FC
:103AE0000B9AFDF702F84FEA49604FEA1069681C2B
:103AF00085B2A5EB0A00A04203D15546781C87B2D7
:103B000006E00098401CC0B2009000980828DADB5C
:103B100000BF701CC6B25E45CBDBBDE8F88F00006D
:103B2000AAC600081ECB00080ED10008160000200F
:103B300018000020580000204AE0000800B589B0B5
:103B40000121084603F0E9F90121042003F0D8F926
:103B500018208DF823000E20ADF8200003208DF8EA
:103B6000220008A9504802F00FFF4FF0804004F0F7
:103B700093F80020ADF81A00ADF8160044F61F6067
:103B8000ADF818004720ADF8140000208DF81C0097
:103B900005A94FF0804003F0EFFC01A804F021F8E4
:103BA0006020ADF804000020ADF80C000120ADF855
:103BB00006000020ADF80A0001A94FF0804003F094
:103BC0005AFD01A804F00DF86020ADF804000020B3
:103BD000ADF80C000120ADF806000020ADF80A0099
:103BE00001A94FF0804003F093FD01A803F0F9FF15
:103BF0006020ADF804000020ADF80C000120ADF805
:103C000006000020ADF80A0001A94FF0804003F043
:103C1000CAFD0121880704F00BF809B000BD10B5FA
:103C2000044621464FF0804004F09EFA21464FF0B2
:103C3000804004F09BFA10BD10B5044621464FF0B9
:103C4000804004F08FFA10BD2DE9F0410446174979
:103C5000204608F0BFF98046154908F039FB0746B1
:103C6000144908F049F9064608F0C6FA85B2284614
:103C7000FFF7D5FFBDE8F0812DE9F04104460B497F
:103C8000204608F0A7F98046094908F021FB0746BD
:103C9000084908F031F9064608F0AEFA85B2284620
:103CA000FFF7CAFFBDE8F08100080140000034437F
:103CB0000000FA440000FA43FE480068704770B5FF
:103CC00004460D462CB9AC4201D0012070BD002045
:103CD000FCE70DB90120F9E705E0207808B90020DC
:103CE000F4E7641C6D1C207804F0D6FA06462878A8
:103CF00004F0D2FA8642F0D0207804F0CDFA0646DD
:103D0000287804F0C9FA301AE0E770B50446204676
:103D100004F072FC451C2846E74909688847061EDE
:103D200000D170BD2A462146304604F0CFFC304613
:103D3000F7E730B9E149E04A1160E149E14A116031
:103D40007047016809B1016800E0DC49DA4A116096
:103D5000416809B1416800E0D949DA4A116000BF01
:103D6000EEE710B52820D4490968884704461CB1FD
:103D70002821204604F043FD204610BD70B50446BE
:103D800022E02568A08900F4807020B9A06810B1F5
:103D9000A068FFF7F3FFA08900F4807028B92069BC
:103DA00018B1C849206909688847A08900F40070E3
:103DB00028B9206A18B1C349206A09688847204693
:103DC000C049096888472C46002CDAD170BD2DE91E
:103DD000F04F8BB083468A460020044605460026F5
:103DE000B94F0021884689460990012008909AF829
:103DF00000002D2802D1B54F0AF1010A9AF80000FF
:103E0000302801D10AF1010A9AF80000312822DB9A
:103E10009AF8000039281EDC00BF1AF8011BA1F136
:103E2000300007F0C6FC0022A94BCDE90601204670
:103E3000294607F025FDCDE90401DDE9062307F059
:103E40000BFA04460D469AF80000302803DB9AF876
:103E500000003928E1DD9AF800002E2830D19AF8C8
:103E6000010030282CDB9AF80100392828DC0AF1FF
:103E7000010A00BF1AF8011BA1F1300007F099FCFC
:103E80000022934BCDE906012046294607F0F8FCB5
:103E9000CDE90401DDE9062307F0DEF904460D460D
:103EA0000022894B4046494607F010FF804689466C
:103EB0009AF80000302803DB9AF800003928D9DD91
:103EC0009AF80000652803D09AF80000452823D10D
:103ED0000AF1010A9AF800002B2802D10AF1010A1E
:103EE00008E09AF800002D2804D14FF0FF30089028
:103EF0000AF1010A08E01AF8010B3038099901EBC0
:103F0000810100EB410009909AF80000302803DBA2
:103F10009AF800003928EEDDDDE9082101FB02F006
:103F200007F047FC42464B46CDE9000107F094F903
:103F300002460B46CDE902010020654906F09AFBD6
:103F400022462B46CDE906013046394607F098FC5B
:103F5000CDE90401DDE9062307F092FC04460D4695
:103F6000CBE906452046294607F0C6FBCBF81400EE
:103F70000320CBF80C0050460BB0BDE8F08F014693
:103F8000491E41EA610141EAA10141EA211141EAE8
:103F9000212141EA2141481C70472DE9F0410446A6
:103FA0000E460CB1206810B90020BDE8F081A06871
:103FB00006446068B04203DBA16820680844F4E767
:103FC0003046FFF7DCFF074638463B49096888471B
:103FD00005463DB93B492068096888470020606074
:103FE0002060E2E725B12846D4E9001204F06EFB18
:103FF000344920680968884767602560A0682844BC
:10400000D3E770B504460CB1206808B9002070BD34
:10401000A16820684518284604F0EEFAA168084413
:10402000F5E72DE9FC4782460E464FF00009DAE934
:104030000645002213462046294607F021FB13D1EE
:104040002EB102213046FFF7A8FF814604E002208E
:104050001949096888478146B9F1000F03D01DA0AE
:104060000088A9F800009FE0DAF8140007F0A1FB2F
:10407000074622462B4607F029FE21F00041002288
:10408000154BCDE9000107F0BFFB3ED8134A144B96
:104090002046294607F0B8FB37D80022114B2046AE
:1040A000294607F0EBFC30D806B315213046FFF760
:1040B00074FF19E01C00002020000020ED810008A2
:1040C0004B820008240000200000F03F0000F0BFF9
:1040D00000002440300000000000B03C0000C0FFA1
:1040E000FFFFDF410000E0C1814604E01520FA49EE
:1040F000096888478146B9F1000F55D0F7A14846B5
:10410000DAF8142004F0E2F84EE02EB140213046F7
:10411000FFF743FF814604E04020EF4909688847E4
:104120008146B9F1000F3FD02046294606F034FA07
:10413000074622462B4607F0C9FD21F00041002228
:10414000E74BCDE9000107F05FFB0FD825F00041F8
:104150002746E44AE44B384607F056FB06D222468F
:104160002B46E2A1484604F0B1F81DE025F00041DD
:104170002746E04AE04B384607F046FB07D325F0D8
:1041800000410022DD4B384607F078FC06D222467B
:104190002B46DBA1484604F099F805E022462B4661
:1041A000D8A1484604F092F84846BDE8FC8701468D
:1041B00000220878302806DB0878392803DC0878E4
:1041C0003038024415E00878412806DB0878462894
:1041D00003DC0878373802440BE00878612806DBF6
:1041E0000878662803DC08785738024401E000208C
:1041F00070471201491C0878302806DB08783928F6
:1042000003DC08783038024415E00878412806DBE2
:104210000878462803DC0878373802440BE0087831
:10422000612806DB0878662803DC087857380244E2
:1042300001E00020DCE71201491C0878302806DB89
:104240000878392803DC08783038024415E008780B
:10425000412806DB0878462803DC08783738024412
:104260000BE00878612806DB0878662803DC08780C
:104270005738024401E00020BAE71201491C0878CF
:10428000302806DB0878392803DC08783038024407
:1042900015E00878412806DB0878462803DC087812
:1042A000373802440BE00878612806DB0878662876
:1042B00003DC08785738024401E0002098E71046F4
:1042C00096E72DE9F05F8346884608F10104002750
:1042D00098F80000222805D08B48C0F80080002004
:1042E000BDE8F09F04E014F8011B5C2900D1641CB8
:1042F0002078222804D0207810B1781C071EF2D133
:10430000781C7549096888478146B9F1000F01D1C9
:104310000020E5E708F101044D469EE020785C2886
:1043200004D014F8010B05F8010B96E0641C20780A
:10433000722818D006DC622809D066280BD06E28B7
:104340007ED10CE0742812D07528F9D113E0082032
:1043500005F8010B7FE00C2005F8010B7BE00A203B
:1043600005F8010B77E00D2005F8010B73E009203B
:1043700005F8010B6FE0601CFFF719FF0646241DCE
:10438000B6F55C4F02D3B6F5604F00D306B962E0D4
:10439000B6F5584F1CD3B6F55C4F19D260785C283F
:1043A00002D1A078752800D055E0E01CFFF7FFFE91
:1043B0008246A41DBAF55C4F02D3BAF5604F00D314
:1043C00049E0C6F30901504661F39F2000F58036AD
:1043D0000427802E01D2012708E0B6F5006F01D234
:1043E000022703E0B6F5803F00D203273D44012FAA
:1043F00020D0022F15D0032F0AD0042F24D106F08D
:10440000BF0040F08001681E05460170B60900BF7C
:1044100006F0BF0040F08001681E05460170B60935
:1044200000BF06F0BF0040F08001681E0546017025
:10443000B60900BF3548C05D3043C1B2681E00E018
:1044400005E00546017000BF00BF3D4403E0207851
:1044500005F8010B00BF00BF641C2078222803D0A0
:10446000207800287FF45AAF002028702078222876
:1044700000D1641CCBF810900420CBF80C0020462F
:104480002EE72DE9F05F804689460027BB4645466A
:1044900011E02878002802DD2878202805DB28781C
:1044A000222802D028785C2801D1012000E00020D9
:1044B00040EA0B0B6D1C28780028EAD1BBF1000FF5
:1044C0003ED1A5EB0807B9F1000F21D0F91C4846F1
:1044D000FFF763FD064620E0200000202564000071
:1044E0000000B03C44F3C2E4E4E9634C252E30669E
:1044F000000000008DEDB5A0F7C6B03E65CDCD4102
:1045000025650000256600001C000020BAE80008B0
:10451000F81CFD4909688847064616B90020BDE821
:10452000F09F3446222004F8010B4146204604F057
:104530003FF82220E0550021781C21543046EEE758
:10454000B8F1000F16D1B9F1000F05D0032148468C
:10455000FFF723FD064604E00320EB49096888477E
:1045600006460EB90020DAE7E8A1304604F020F84C
:104570003046D4E745460BE05146E5A004F00EF87E
:1045800008B17F1C03E0BAF1200F00DA7F1D6D1C1B
:1045900095F800A0BAF1000F02D0781C071EEBD1ED
:1045A000B9F1000F05D0F91C4846FFF7F6FC0646A6
:1045B00004E0F81CD4490968884706460EB9002073
:1045C000ADE734464546222004F8010B47E0287841
:1045D0001F280ADD2878222807D028785C2804D0F4
:1045E00015F8010B04F8010B39E05C2004F8010B0D
:1045F00015F8011B8A460C2919D006DC082912D0AF
:10460000092920D00A2922D115E00D2917D0222905
:1046100005D05C291BD15C2004F8010B1EE0222090
:1046200004F8010B1AE0622004F8010B16E0662082
:1046300004F8010B12E06E2004F8010B0EE072206A
:1046400004F8010B0AE0742004F8010B06E052465E
:10465000B1A1204603F03AFE641D00BF00BF2878D8
:104660000028B4D1222004F8010B002004F8010B2B
:10467000304654E770B504460D4629462069FFF7D9
:1046800000FF70BD00E0401C20B1017811B101783D
:104690002029F8DD70472DE9F04706460C462078C2
:1046A0007B2804D09E4804600020BDE8F0870620E7
:1046B000F060601CFFF7E6FF044620787D2801D1FA
:1046C000601CF2E7FFF74DFB0546B060B06808B923
:1046D0000020EAE72046FFF7D5FF804641462846FE
:1046E000FFF7EFFD0746FFF7CDFF04460CB90020AA
:1046F000DBE7286928620020286120783A2803D067
:10470000874804600020D0E7601CFFF7BBFF8046AD
:104710004146284600F099F80746FFF7B3FF0446E4
:104720000CB90020C1E731E0FFF71BFB071E00D1E9
:10473000BBE72F607D603D46601CFFF7A3FF81460D
:1047400049462846FFF7BDFD8046FFF79BFF04461C
:104750000CB90020A9E72869286200202861207888
:104760003A2803D06E48046000209EE7601CFFF7E3
:1047700089FF81464946284600F067F88046FFF7E2
:1047800081FF04460CB900208FE700BF20782C2859
:10479000CAD020787D2801D1601C86E7604804607B
:1047A000002082E72DE9F04705460C4620785B287B
:1047B00004D05B4804600020BDE8F0870520E86075
:1047C000601CFFF75FFF044620785D2801D1601C64
:1047D000F2E7FFF7C6FA0646A860A86808B9002005
:1047E000EAE72046FFF74EFF80464146304600F09C
:1047F0002CF80746FFF746FF04460CB90020DBE71C
:1048000017E0FFF7AEFA071E00D1D5E737607E60EC
:104810003E46601CFFF736FF81464946304600F0B1
:1048200014F88046FFF72EFF04460CB90020C3E7BA
:1048300000BF20782C28E4D020785D2801D1601CAE
:10484000BAE7374804600020B6E770B505460C4665
:104850000CB9002070BD042232A1204603F0EBFE0B
:1048600018B90220E860201DF4E705222FA1204698
:1048700003F0E1FE18B90020E860601DEAE70422B9
:104880002CA1204603F0D7FE20B90120E860686122
:10489000201DDFE72078222804D121462846FFF793
:1048A00010FDD7E720782D2805D02078302807DBA9
:1048B0002078392804DC21462846FFF788FAC9E722
:1048C00020785B2804D121462846FFF76BFFC1E71B
:1048D00020787B2804D121462846FFF7DCFEB9E783
:1048E0000F4804600020B5E72DE9F04780460D46EB
:1048F00016460024FFF735FA0746002008490860ED
:10490000E7B9BDE8F0870000200000202222000067
:10491000225C080C0A0D090075253034780000006F
:104920001C0000206E756C6C0000000066616C73EA
:104930006500000074727565000000004046FFF7D6
:10494000A1FE814649463846FFF77FFF04462CB951
:104950003846FFF713FA0020BDE8F08766B120461D
:10496000FFF790FE0446207830B13846FFF706FA8C
:10497000FE4804600020EFE705B12C603846EBE705
:1049800010B50446002211462046FFF7ADFF10BDCA
:104990002DE9FF4F89B0884616461F460020089033
:1049A000079006904FF0070A00250998D0F8089064
:1049B000002002900190009004E00298401C0290B8
:1049C000D9F80090B9F1000FF7D10298002835D13D
:1049D00057B116B108F1040000E003200146384643
:1049E000FFF7DBFA069009E016B108F1040100E0D8
:1049F00003210846DE49096888470690069818B9D9
:104A000000200DB0BDE8F08F069C7B2004F8010B60
:104A100066B10A2004F8010B002503E0092004F820
:104A2000010B6D1CA8F10100A842F7DC7D2004F801
:104A3000010B002004F8010B0698E2E7002F77D065
:104A4000BD680EB1022000E0012082460AF101019A
:104A50003846FFF7A2FA04460CB90020D1E77B20C4
:104A600004F8010B16B10A2004F8010B0020207095
:104A7000B8685044B8600998D0F8089008F1010867
:104A800068E0B6B141463846FFF787FA04460CB9EC
:104A90000020B6E70020039005E0092004F8010B90
:104AA0000398401C039003984045F6DBB8684044E7
:104AB000B8603946D9F82000FFF7E3FC3846FFF725
:104AC000A0FAB8600EB1022000E0012082465146F3
:104AD0003846FFF762FA04460CB9002091E73A2005
:104AE00004F8010B16B1092004F8010BB868504412
:104AF000B8603B4632464146484600F078FA3846B0
:104B0000FFF77FFAB8600EB1012000E00020D9F86D
:104B1000001009B1012100E0002100EB010A0AF1B7
:104B200001013846FFF739FA044614B9002068E756
:104B300034E0D9F8000010B12C2004F8010B16B1B4
:104B40000A2004F8010B00202070B8685044B860B7
:104B5000D9F80090B9F1000F93D116B108F1010016
:104B600000E0022001463846FFF717FA04460CB968
:104B7000002046E74EB1002503E0092004F8010BB0
:104B80006D1CA8F10100A842F7DC7D2004F8010BA0
:104B90000020207038682844069005E102998800BA
:104BA0007349096888470890089808B9002028E7E1
:104BB000029988006E49096888470790079828B9C4
:104BC0006C4908980968884700201AE70298810014
:104BD000089803F014FE02988100079803F00FFE76
:104BE0000998D0F8089008F1010806B1C2442EE0F7
:104BF0000021D9F82000FFF744FC0490079941F800
:104C00002500002332464146484600F0F0F9294687
:104C10006D1C0590089A42F82100049898B10598F7
:104C200088B1059803F0E8FC8346049803F0E4FC9F
:104C30000BEB0001891C16B108F1020000E0002016
:104C40000844824401E001200190D9F80090B9F1B4
:104C5000000FCDD1019820B95046454909688847D1
:104C60000690069808B901200190019818B3002514
:104C700014E0079850F8250028B1079951F825004D
:104C80003C4909688847089850F8250028B10899D8
:104C900051F825003749096888476D1C02988542FC
:104CA000E7DB34490798096888473249089809685A
:104CB00088470020A5E67B21069801700698441CD1
:104CC00016B10A2004F8010B00202070002548E0EE
:104CD0005EB10020039005E0092004F8010B039861
:104CE000401C039003984045F6DB079951F82500D6
:104CF00003F082FC0090079850F825102046009A97
:104D000003F0E4FC009804443A2004F8010B16B1C7
:104D1000092004F8010B089850F82510204603F0EC
:104D200047FC089951F8250003F066FC04440298FA
:104D3000401EA84202D02C2004F8010B16B10A2014
:104D400004F8010B00202070079951F8250009494B
:104D500009688847089951F8250006490968884775
:104D60006D1C02988542B3DB024905E01C0000205F
:104D70002000002024000020079809688847F74990
:104D80000898096888474EB1002503E0092004F817
:104D9000010B6D1CA8F10100A842F7DC7D2004F88E
:104DA000010B002004F8010B06982AE62DE9FF4FBD
:104DB00085B092461E464FF0000B052003900598E3
:104DC000D0F80880D946002500200290019003E029
:104DD00009F10109D8F80080B8F1000FF8D1B9F154
:104DE000000F16D12EB103213046FFF7D6F88346C7
:104DF00004E00320DA49096888478346BBF1000FC5
:104E000003D0D8A1584603F0D3FB584609B0BDE8FB
:104E1000F08F002E57D0B56801213046FFF7BDF85E
:104E200004460CB90020F1E75B202070B068401CFC
:104E3000B0600598D0F808802EE0334652460699B7
:104E4000491C404600F0D3F83046FFF7DAF8B0606E
:104E5000D8F80000F0B1BAF1000F01D0022000E054
:104E6000012003900399491C3046FFF796F8044649
:104E70000CB90020CAE72C2004F8010BBAF1000F8E
:104E800002D0202004F8010B00202070B1680398A4
:104E90000844B060D8F80080B8F1000F02D0029842
:104EA0000028CAD002213046FFF777F804460CB933
:104EB0000020ABE75D2004F8010B00202070306873
:104EC00000EB050B91E04FEA8900A5490968884786
:104ED00007460FB9002099E74FEA8901384603F0E9
:104EE0008EFC0598D0F8088021E0002352460699F0
:104EF000491C404600F07BF8049029466D1C04983C
:104F000047F82100049870B1049803F075FB801CE9
:104F1000BAF1000F01D0012100E000210144039803
:104F20000844039001E001200290D8F80080B8F115
:104F3000000F02D002980028D7D0029820B98849E3
:104F40000398096888478346BBF1000F01D101200F
:104F50000290029890B1002508E057F8250020B192
:104F600057F825007D49096888476D1C4D45F4DBDD
:104F700038467A4909688847002047E75B208BF864
:104F800000000BF1010400202070002521E057F8FB
:104F9000250003F031FB019057F825102046019AB7
:104FA00003F094FB01980444A9F10100A8420AD03F
:104FB0002C2004F8010BBAF1000F02D0202004F8D5
:104FC000010B0020207057F82500644909688847C4
:104FD0006D1C4D45DBDB38466049096888475D201C
:104FE00004F8010B002004F8010B58460EE72DE9E8
:104FF000F04104460F4690461D46002614B9002095
:10500000BDE8F081002D49D0207B072845D2DFE89C
:1050100000F0101C04282E343C0005212846FEF721
:10502000BCFF064626B1AFF20471304603F0C0FA69
:1050300033E006212846FEF7B0FF064626B1AFF260
:105040001471304603F0B4FA27E005212846FEF734
:10505000A4FF064626B1AFF22471304603F0A8FA49
:105060001BE029462046FEF7DCFF064615E02946F0
:105070002046FFF7FFFA06460FE02B464246394628
:105080002046FFF793FE064607E02B464246394688
:105090002046FFF77DFC064600BF37E0207B07284F
:1050A00033D2DFE800F00A1004161C222A00AFF207
:1050B0008C70FEF72AFE064627E0AFF29070FEF7EE
:1050C00024FE064621E0AFF29470FEF71EFE06466F
:1050D0001BE000212046FEF7A4FF064615E0002154
:1050E0002046FFF7C7FA06460FE00023424639463E
:1050F0002046FFF75BFE064607E00023424639469E
:105100002046FFF745FC064600BF00BF304677E764
:1051100010B504460023012219462046FFF767FF19
:1051200010BD10B5044600231A4619462046FFF765
:105130005EFF10BDFEB505460C46164620460849E2
:105140000968884700900194002002906B4632461F
:1051500000212846FFF74BFFFEBD00002400002081
:10516000200000205B5D000001468A68002001E00D
:10517000401C1268002AFBD170470246906801E08B
:10518000491E006808B10029FADC704770B5054671
:105190000E46AC6800E024682CB13146206AFEF768
:1051A0008EFD0028F7D1204670BD01604860704731
:1051B00070B50546FEF7D5FD04460CB9002070BD5C
:1051C00028222946204603F0C6FA00202062E06823
:1051D00040F48070E0600020606020602046EEE7D0
:1051E00070B505460E46AC6806B970BD0CB9AE6028
:1051F00009E000E0246814B120680028FAD13146A3
:105200002046FFF7D2FF00BFEFE770B506460D4618
:10521000144604B970BD206A18B1FE49206A0968B5
:1052200088472846FEF771FD206221463046FFF789
:10523000D7FF00BFEEE770B506460D46144604B929
:1052400070BDA08900F4007028B9206A18B1F14936
:10525000206A096888472562E06840F40070E060D1
:1052600021463046FFF7BCFF00BFE9E770B50546B1
:105270000C462046FFF79CFF064631462846FFF7BE
:10528000AFFF70BD2DE9F04105460E46144620469D
:10529000FFF78EFF07463A4631462846FFF7B5FF2F
:1052A000BDE8F08110B502460B46916801E009683F
:1052B0005B1E09B1002BFADC09B9002010BD48685B
:1052C00010B1D1E900042060086810B1D1E90040B4
:1052D00060609068884201D1086890600020086092
:1052E00048600846EAE770B504460D462946204660
:1052F000FFF7D8FF0646FEF741FD70BD2DE9F041EE
:1053000005460F460026AC6801E0761C24682CB1E7
:105310003946206AFEF7D3FC0028F6D12CB131467D
:105320002846FFF7BFFFBDE8F0810020FBE770B51E
:1053300004460D4629462046FFF7E0FF0646FEF7E5
:105340001DFD70BD2DE9F04106460F461446B568B7
:1053500001E02D687F1E0DB1002FFADC2DB921462A
:105360003046FFF73DFFBDE8F0812560686860606A
:105370006C60B068A84201D1B46001E0606804606C
:1053800000BFF0E72DE9F04106460F461446B56828
:1053900001E02D687F1E0DB1002FFADC0DB9BDE8CC
:1053A000F0812868206068686060206808B1206823
:1053B0004460B068A84201D1B46001E06068046054
:1053C0000020686028602846FEF7D8FC00BFE6E7AA
:1053D0002DE9F04105460E4617464FF00008AC682F
:1053E00002E008F1010824682CB13146206AFEF77A
:1053F00066FC0028F5D144B13046FEF786FC3862E1
:105400003A4641462846FFF7BDFFBDE8F08110B59A
:10541000FEF7A7FC04460CB10220E060204610BD58
:1054200010B5FEF79EFC04460CB10120E06020465A
:1054300010BD10B5FEF795FC04460CB10020E060ED
:10544000204610BD70B50546FEF78BFC044624B11E
:105450000DB1012000E00020E060204670BD70B575
:1054600005460E46FEF77DFC044644B10320E0608D
:10547000C4E906562846314606F03EF960612046EA
:1054800070BD70B50546FEF76CFC04462CB10420D7
:10549000E0602846FEF739FC2061204670BD10B55B
:1054A000FEF75FFC04460CB10520E060204610BD0D
:1054B00010B5FEF756FC04460CB10620E06020460D
:1054C00010BD2DE9F05F81468A460025AB46FFF707
:1054D000E6FF0646002410E059F8240006F069F9BA
:1054E0000746FFF7BCFF05460CB9B56003E0294647
:1054F0005846FFF75AFEAB46641C0EB15445EBDB31
:105500003046BDE8F09F2DE9F05F81468A460025D0
:10551000AB46FFF7C4FF0646002410E059F824000C
:1055200006F0BEFC0746FFF79AFF05460CB9B560CA
:1055300003E029465846FFF738FEAB46641C0EB11F
:105540005445EBDB3046BDE8F09F2DE9F0470746B8
:1055500088460025A946FFF7A2FF0646002410E072
:1055600007EBC400D0E900211046FFF778FF05469D
:105570000CB9B56003E029464846FFF716FEA94678
:10558000641C0EB14445EBDB3046BDE8F0872DE9E5
:10559000F047074688460025A946FFF780FF0646E4
:1055A00000240DE057F82400FFF76BFF05460CB907
:1055B000B56003E029464846FFF7F7FDA946641C9D
:1055C0000EB14445EEDB3046BDE8F0872DE9F047EB
:1055D000054689464FF0000815B90020BDE8F08760
:1055E000FEF7BFFB04460CB90020F7E7E86820F49B
:1055F0008070E06068696061D5E90601C4E9060170
:10560000286968B12869FEF780FB2061206938B9F4
:10561000204601E024000020FEF7B0FB0020DDE77B
:10562000286A50B1286AFEF770FB2062206A20B910
:105630002046FEF7A3FB0020D0E7B9F1000F01D10F
:105640002046CBE7AF6816E001213846FFF7BEFFE2
:10565000064626B92046FEF791FB0020BEE7B8F1CA
:10566000000F05D0C8F80060C6F80480B04601E01D
:10567000A660B0463F68002FE6D12046AEE701465F
:1056800055E00278202A01D1401C50E00278092A16
:1056900001D1401C4BE002780D2A01D1401C46E0AC
:1056A00002780A2A01D1401C41E002782F2A0BD14E
:1056B00042782F2A08D100E0401C0278002A36D018
:1056C00002780A2A33D0F7E702782F2A0ED14278DF
:1056D0002A2A0BD100E0401C02782AB102782A2A3B
:1056E000F9D142782F2AF6D1801C20E00278222AB4
:1056F00019D110F8012B01F8012B0AE002785C2A7D
:1057000003D110F8012B01F8012B10F8012B01F83F
:10571000012B027812B10278222AEFD110F8012B66
:1057200001F8012B03E010F8012B01F8012B02789E
:10573000002AA6D10A7070472DE9F04F87B0FE48C5
:10574000006806F0ADFB80460022FC4B05F040FEF1
:10575000FB4AFC4BCDE9000106F092F8CDE90201CD
:1057600004F0CCFE04460D46F748006806F098FBAE
:10577000064622462B4606F083F80022F34BCDE97D
:10578000040106F0A3FA824605F034FD069006985F
:1057900007B0BDE8F08F2DE9F04F85B0E64800680E
:1057A00006F07EFB80460022E44B05F011FEE44A41
:1057B000E44BCDE9000106F063F8064605F046FC2F
:1057C000CDE90201E048006806F06AFB0446DDE925
:1057D000022306F055F8824605F00CFD049004986B
:1057E00005B0BDE8F08F2DE9FF5F00200390FFF7C3
:1057F000A3FF0190FFF7CFFF0090019906F0EAFBAD
:10580000029006F04DFB804604F068FD064600223B
:10581000CA4B06F035F80446CD4ACA4B05F0D8FD10
:10582000824605F0E7FC0390039804B0BDE8F09FC2
:105830002DE9F04F87B0FFF7D6FF019006F030FB5F
:1058400080460022BD4B05F0C3FDBD4ABD4BCDE9EE
:10585000020106F015F8CDE9040105F0F7FB044656
:105860000D46FFF798FF804606F01AFB06462246D3
:105870002B4605F0ADFD824605F0BCFC069006986F
:1058800007B0BDE8F08F1CB54FF47840B1490880EF
:10589000B1A018210B464FF49672CDE90010782183
:1058A0006420FEF7B6F81CBD0EB54FF47840A94948
:1058B00008805A234FF49B7228210A20FDF7FDFE31
:1058C00000204FF6FF71A34A12881023CDE9002172
:1058D0000290024678210A20FEF7CEF800204FF60B
:1058E000FF719C4A12881023CDE900210290012209
:1058F00078211E20FEF7C0F800214FF6FF70954A70
:1059000012881023CDE900200291022296210A205C
:10591000FEF7B2F800204FF6FF718E4A128810236E
:10592000CDE900210290032296211E20FEF7A4F863
:1059300000204FF6FF71874A12881023CDE900211D
:1059400002900422B4210A20FEF796F800214FF6B7
:10595000FF70804A12881023CDE9002002910522B1
:10596000B4211E20FEF788F87FA010210B46C82224
:10597000CDE9001078213220FEF74BF87AA01021F3
:105980000B46C822CDE9001096213220FEF741F8DF
:1059900075A010210B46C822CDE90010B421322099
:1059A000FEF737F800214FF6FF706A4A128810237D
:1059B000CDE900200291062214213C20FEF75CF87C
:1059C00000204FF6FF71634A12881023CDE90021B1
:1059D0000290072214215A20FEF74EF800214FF6BC
:1059E000FF705C4A12881023CDE900200291082242
:1059F00014217820FEF740F800214FF6FF70554A39
:105A000012881023CDE9002002910922142196204A
:105A1000FEF732F800214FF6FF704E4A128810232D
:105A2000CDE9002002910A221421B420FEF724F8C7
:105A300000214FF6FF70474A12881023CDE900205D
:105A400002910B221421D220FEF716F80EBD2DE98B
:105A5000F04F87B045480590FFF7C5FE8246FFF737
:105A6000E7FE0490504606F01BFA06460022334B30
:105A700005F0AEFC324A334BCDE9000105F000FFE2
:105A8000044605F059FB0022394BCDE9020105F02F
:105A9000F7FE804605F0AEFB06901F202D490880DA
:105AA000069806F0FDF98046324A334B05F0E8FED1
:105AB00006460022314B06F017F8044605F04CFE6E
:105AC0001FFA80FB02223C215846FDF714FE0021FC
:105AD000504606F0C9FB0BD28AF0004A28A01021DC
